S01E0000556C747261736F6E69632053656E736F7220746573742E7372656368
S11300000C942A000C943F000C943F000C943F0085
S11300100C943F000C943F000C943F000C943F0060
S11300200C943F000C943F000C943F000C943F0050
S11300300C943F000C943F000C943F000C943F0040
S11300400C943F000C943F000C943F000C943F0030
S11300500C943F0011241FBECFE5D8E0DEBFCDBF16
S113006010E0A0E6B0E0E6E2F6E002C005900D92F2
S1130070AC38B107D9F70E947C010C9411030C949D
S113008000009BB3282F207F9F70922B9BBBDA9894
S1130090DB9AEFEAF4E03197F1F700C00000DB9857
S11300A0EFECF7E03197F1F700C000002BB3F0E17B
S11300B08F9FC0011124922F9F70892B8BBBDB9AD9
S11300C08FEA94E00197F1F700C00000DB980895EF
S11300D09BB3282F207F9F70922B9BBBDA9ADB9ACD
S11300E0EFEAF4E03197F1F700C00000DB98EFECA1
S11300F0F7E03197F1F700C000002BB3F0E18F9FD8
S1130100C0011124922F9F70892B8BBBDB9A8FEA3D
S113011094E00197F1F700C00000DB9808958CEF9C
S11301208ABBDB982FEF83EC99E02150804090400C
S1130130E1F700C0000083E30E9441002FEF89EF44
S113014090E0215080409040E1F700C0000082E33D
S11301500E9441002FEF89EF90E0215080409040B1
S1130160E1F700C0000088E20E9441002FEF89EF10
S113017090E0215080409040E1F700C000008CE006
S11301800E9441002FEF89EF90E021508040904081
S1130190E1F700C0000081E00E9441002FEF89EFE9
S11301A090E0215080409040E1F700C000000895A5
S11301B081E00E9441008FE39FE10197F1F700C0C5
S11301C0000008950F931F93CF93FC01808188232F
S11301D079F08F01C0E00E946800CF5F85E38A95C3
S11301E0F1F70000F801EC0FF11D80818111F3CFCC
S11301F0CF911F910F910895CF93DF93D82FCDEC1A
S11302008C9FC12D1124C695C695C69580E38C0F8D
S11302100E946800CC0F8C2F880F880FC80F8D2F79
S11302208C1B805D0E946800DF91CF910895B09986
S113023018C081E090E0A0E0B0E0B0990DC0019654
S1130240A11DB11D803C27E2920729E0A207B10558
S1130250A1F78FEF9FEF0895803C9742A940B10525
S1130260C9F11FBC82E08EBD1DBC1CBCB09B22C06A
S11302708CB59DB581369A4EE8F481E090E0A0E01B
S1130280B0E0B09B12C02CB53DB521363A4E68F4AF
S11302900196A11DB11D803C27E2920729E0A20727
S11302A0B10579F78FEF9FEF0895803C9742A940FD
S11302B0B10599F08CB59DB5A0E0B0E01EBC8136C7
S11302C02AEE9207A105B10558F4B695A79597951E
S11302D0879508958FEF9FEF08958FEF9FEF08950F
S11302E08EEF9FEF08958AE020E030E0F901319726
S11302F0F1F78150D9F708950E9473010E948F008D
S11303000E9473010E94D80080E690E00E94E200FF
S11303108CE690E00E94E2000E9473010E94730147
S11303200E9473010E9473010E9473010E94730171
S11303300E94D800B99A85E38A95F1F70000C19A22
S113034080E58A95F1F7C1988AE68A95F1F700C0AD
S1130350B8980E941701EC01CF3F8FEFD80739F40A
S11303600E94D80088E790E00E94E200E3CFCE3FED
S11303708FEFD80739F40E94D80080E890E00E94FB
S1130380E200D8CF0E94D800BE0180E090E00E9435
S1130390830220E030E048E652E40E94DB010E9440
S11303A04D02862F0E94FC0088E890E00E94E20043
S11303B00E947301BFCF0E94EF010C94D7020E94E8
S11303C0D00258F00E94C90240F029F45F3F29F09E
S11303D00C94C00251110C940B030C94C6020E949D
S11303E0E80268F39923B1F3552391F3951B550B58
S11303F0BB27AA2762177307840738F09F5F5F4FF4
S1130400220F331F441FAA1FA9F335D00E2E3AF032
S1130410E0E832D091505040E695001CCAF72BD04A
S1130420FE2F29D0660F771F881FBB1F261737079B
S11304304807AB07B0E809F0BB0B802DBF01FF27CD
S113044093585F4F3AF09E3F510578F00C94C002E8
S11304500C940B035F3FE4F3983ED4F386957795B1
S11304606795B795F7959F5FC9F7880F911D969586
S1130470879597F90895E1E0660F771F881FBB1FE2
S1130480621773078407BA0720F0621B730B840B8F
S1130490BA0BEE1F88F7E09508950E945402689401
S11304A0B1110C940B0308950E94F00288F09F5739
S11304B098F0B92F9927B751B0F0E1F0660F771F84
S11304C0881F991F1AF0BA95C9F714C0B13091F07A
S11304D00E940A03B1E008950C940A03672F782F51
S11304E08827B85F39F0B93FCCF38695779567953F
S11304F0B395D9F73EF490958095709561957F4FAB
S11305008F4F9F4F0895E89409C097FB3EF4909550
S11305108095709561957F4F8F4F9F4F9923A9F0D8
S1130520F92F96E9BB279395F69587957795679567
S1130530B795F111F8CFFAF4BB0F11F460FF1BC0AB
S11305406F5F7F4F8F4F9F4F16C0882311F096E93E
S113055011C0772321F09EE8872F762F05C06623EC
S113056071F096E8862F70E060E02AF09A95660FA5
S1130570771F881FDAF7880F9695879597F908955E
S113058097F99F6780E870E060E008959FEF80EC42
S1130590089500240A9416161706180609060895E5
S11305A000240A9412161306140605060895092E4B
S11305B00394000C11F4882352F0BB0F40F4BF2BBA
S11305C011F460FF04C06F5F7F4F8F4F9F4F0895FA
S11305D057FD9058440F551F59F05F3F71F04795F0
S11305E0880F97FB991F61F09F3F79F087950895D5
S11305F0121613061406551FF2CF4695F1DF08C0F4
S1130600161617061806991FF1CF86957105610510
S113061008940895E894BB2766277727CB0197F9B8
S10906200895F894FFCFD9
S1130626556C74726120536F6E69630053656E7303
S11306366F722054657374004572726F72202100C4
S10F0646436C65617220210020636D008C
S9030000FC
